:020000040000FA
:10000000500C0020F50000000F010000110100005D
:1000100000000000000000000000000000000000E0
:1000200000000000000000000000000013010000BC
:100030000000000000000000150100001701000092
:1000400039030000190100005904000019010000E3
:100050001901000000000000A101000019010000CA
:100060001901000019010000190100001901000028
:100070001901000019010000190100001901000018
:10008000190100009103000019010000190100008E
:10009000B10300001901000019010000190100005E
:1000A000190100001901000000000000000000001C
:1000B0000000000000000000000000000000000040
:1000C0000348854600F05AF800480047FD1000003C
:1000D000500C0020401E00BF00BF00BF00BF00BF8B
:1000E00000BF00BF00BF00BF00BF00BF00BFF1D115
:1000F000704700000321094802680A43026008486B
:1001000002680A4302600748804707480047FEE745
:10011000FEE7FEE7FEE7FEE7FEE7000024050040FD
:1001200054050040B9030000C100000030B50B4683
:10013000014600202022012409E00D46D5409D42C1
:1001400005D31D469540491B254695404019154647
:10015000521E002DF1DC30BD03460B439B0703D03C
:1001600009E008C9121F08C0042AFAD203E00B787C
:100170000370401C491C521EF9D27047064C0125E1
:10018000064E05E0E36807CC2B430C3C984710343F
:10019000B442F7D3FFF798FF3C1D00005C1D000040
:1001A000F0B50025FF248BB0013401262F460195C0
:1001B000204601F0EDFA002808D047484068304258
:1001C00004D046480021201835430160241D7600E4
:1001D0007F1CA4B2042FEBD3FF207D3001F0D8FAAE
:1001E000002807D03E4800210160400705433D48F4
:1001F000006901903C4C280712D0012700262F42AD
:100200000AD03A48B200111808690969C004C00E42
:100210008903A258890F90477F00761C042EEED3E5
:10022000002D57DA00200590401E4DE0A119403105
:1002300008788506AD0E42B2521C39D00121A94082
:10024000089A0091114233D080090390284600F0AB
:100250005BFD800020580490002802D103980328F9
:1002600026D103980099032802D1059808430590E8
:100270001F4AA80080180068019A8003800F11426D
:1002800002D0022802D013E0032811D103990329D8
:1002900007D102281CD00221284601F069FA7F1CF0
:1002A000FFB20498002803D0049A28460399904787
:1002B000761C042EBAD3002F0CD00A48006901998D
:1002C000884207D00190059800273E460890ADE788
:1002D0000321E1E70BB0F0BD006300400060004087
:1002E0007C6100400005005068030020006500406C
:1002F000000700508307FF22DB0E9A408907090E92
:10030000994000280BDA0007000F083883080848D6
:100310009B001818C36993430B43C361704783085C
:1003200004489B001B1818689043084318607047E6
:1003300000ED00E000E400E0F8B5FF20013000F03F
:1003400043FF002401250F4E0F4F002808D00F480F
:1003500004600120B0607D720021381D00F0DCFCDB
:10036000FF20053000F030FF00280AD00748001DAC
:1003700004600220B060BD7203480121103000F01B
:10038000CBFCF8BD00030040B0030020000100409A
:1003900010B506490020086048608860C8600349BD
:1003A00040390860486001F0E7FA10BD4011014093
:1003B00010B501F077FA10BD10B500F0A1FD0028CE
:1003C00005D01F491D484860C8131E4988611E4852
:1003D000018CC9B201290BD1828C120708D1028D80
:1003E0001206120F042A03D1828D1206120F0AD0B0
:1003F000012921D1818C09071ED1018D0906090F20
:100400000A2904D007E0114A01219160F5E7828DA5
:100410001206120F05D00D290ED1808D0006000F97
:100420000AD10B480168012904D00A49016001681A
:100430000129FCD1C021416110BD0000DFFF07C0D0
:1004400000050040006C0040C00F00F000060040B6
:1004500000EC06407593000010B501F055FB10BD8F
:1004600010B5024A024900F021F810BDA30E0000A9
:100470001000002030B47446641E2578641CAB4222
:1004800000D21D46635D5B00E31830BC184702E0F4
:1004900008C8121F08C1002AFAD17047704700200F
:1004A00001E001C1121F002AFBD17047F8B51646C2
:1004B0000F460446002503E03946B047641C6D1C16
:1004C00020780028F8D12846F8BD0000044842688A
:1004D0000121C9050B46934383600A40C2607047FF
:1004E0000005005070B50024064D06E06968E00084
:1004F000085C012100F0EEFE641C28788442F5D3EC
:10050000002070BD4C000020F8B515460C4606468C
:10051000052A01D20720F8BD00F0B2FF002803D160
:1005200000F084FF0028F6D1104900204E600C70C6
:10053000C8608D6008610E4D0DE0E00069688019AB
:10054000009181786A46517000780A4A694600F045
:1005500011FF0028DFD12046641EE4B20028ECD150
:10056000054A0021024800F04DF8F8BD4C0000207B
:10057000341D0000B10E0000DD0D0000BFF34F8FF1
:1005800004490348C860BFF34F8F00BFFDE7000078
:100590000400FA0500ED00E00EB500210290009184
:1005A0006A4601910148FFF7E9FF0EBD01400000D6
:1005B00010B58268C368934203D000F05FFC00204E
:1005C00010BD052010BD002906D0002A02D0531E00
:1005D000134203D0092070470E20704701608380CA
:1005E00000218160C1600846704710B58268C36809
:1005F0009A1A83889A4203D800F04AFC002010BD62
:10060000042010BD0A4B9B68002B07D0002A07D09E
:10061000002805D00068037C002B03D00820704719
:1006200007207047002303744174426118467047E5
:1006300014000020FFB59007002581B014460E4637
:10064000002832D11B4F002C31D001F0D1F8049892
:1006500078610320387033461821224600204B432E
:10066000BC601834C10089180D704D708E704C60DC
:100670001C19401C0328F5DBFD607D7001240E4829
:10068000BD702405046003211420FFF733FE0B48DE
:1006900004600B4C0198A06003211120FFF72AFE93
:1006A00060683861002005B0F0BD0720FBE7BD6041
:1006B000FBE700001400002080E200E000E100E021
:1006C00000150140FEB50D461B49174689680446D2
:1006D00000292AD0002C28D0052D01D20720FEBDEC
:1006E0006069002821D0607C012820D0002601F01C
:1006F0009FFAC0001049019089684018694601F0CE
:10070000C1FA002815D0012101700C4944604968E4
:100710000830E2C0084901988968411868460078A5
:10072000487001F001F90020FEBD0820FEBD2E46F4
:10073000DDE70420FEBD000014000020001501408C
:10074000F8B5134D0446A96800291CD0002C1AD016
:100750006069002817D00026267401F069FAC700E6
:10076000A8686946381801F08DFA00280DD00221DA
:1007700001704460A868391868460078487001F034
:10078000D3F83046F8BD0820F8BD0420F8BD0000BD
:100790001400002070B50446224888B01E460D00A3
:1007A00042601CD0A888296882B21F48FFF70BFF5F
:1007B000002815D1A889A96882B21B481030FFF71C
:1007C00002FF00280CD1202218496846FFF7C4FC1C
:1007D000A06806902079002804D0012103E00720BA
:1007E00008B070BD00216846017506776079002861
:1007F00000D00E2069464875E0780290A0780390FA
:1008000020780190607800900949684600F040FE29
:100810000028E5D100F0C6FE02480121401C00F08E
:100820009BFEDDE7040000202C030020B81C000024
:10083000591A000010B501460A48FFF7D6FE040019
:100840000ED100F055FF00280AD107490548FFF7EF
:10085000AFFE002804D10121034800F0FDFE04464C
:10086000204610BD3C0300200400002000B500F02D
:1008700005F800BD00B500F009F800BD72B60248E9
:100880000168491C016070470C000020034908689A
:10089000401E086000D162B6704700000C000020C6
:1008A000F8B507460024234802E0641C042C1AD241
:1008B000A2008258BA42F8D1042C14D21D481E4E10
:1008C0000C38002929D001290ED003290BD1600052
:1008D000201880194578002D05D018480169002995
:1008E00001D028468847F8BD61006118755C8E19F3
:1008F000717800290CD011490A2249688068514357
:100900000E4A521CFFF7DEFE002801D10B4847704B
:100910000A48B17814300155DDE78068FFF710FF11
:1009200006486100611814308919005D8D78A8426D
:10093000D1D0F8BD041D00000404002034000020C4
:1009400010B5FFF7CFFD10BD10B50D2809D00E284A
:1009500009D00F2809D0102802D105A0FFF780FD8B
:1009600010BD07A0FAE70BA0F8E70FA0F6E700001C
:1009700072656C6561736520616761696E00000076
:1009800048656C6C6F775F49276D20627574746F72
:100990006E5F310048695F54686973206973206233
:1009A0007574746F6E5F32006973206C6F6E6720B0
:1009B000707265737300000070B50023042811D2B3
:1009C000440004190D4D012A02D101290DD0002245
:1009D00046008019094E801900290CD0012906D043
:1009E000032906D00723184670BD0D30C2B22A5520
:1009F000F9E74270F7E78270F5E700000404002091
:100A000070B50E46204905464E608D6000200A6193
:100A1000A9071ED50024012211462046FFF7CCFF6E
:100A2000641C042C02D20028F5D012E0002810D15A
:100A3000720804211548FFF767FD002809D1FFF768
:100A400051FD002805D11148114A00211438FFF743
:100A5000D9FDE90706D00F220E4952058A6000230E
:100A6000CB608A6100280DD108480B4A00211C3850
:100A7000FFF7C8FD002805D10448084A01211838AD
:100A8000FFF7C0FD70BD000034000020141D000001
:100A9000990C000000050050550F0000CD04000027
:100AA000FEB57A4D0722EB6892059A4302936B6874
:100AB00000939C0006461B19002001210193490563
:100AC0000746734C3300FFF7D5FC180D1515374753
:100AD00055677C887F8891DE9E9E9E9E9EC8CED163
:100AE000D8DEDE140F21029A49059143A160E76028
:100AF0002F70FEBDA260E76060680F225205504073
:100B0000800209D5A160E760022E02D1E120C00079
:100B10000AE07D20400107E0E160A760022E01D1DC
:100B2000C82001E0FF2091302E706421FFF7FEFA0B
:100B30000099414300223FE0A260E76060680F2215
:100B400052055040800204D5A160E76019204001A1
:100B5000EAE7E160A760E3E7A260E76060680F2270
:100B600052055040800202D5A160E760D1E7E16004
:100B7000A760D7E7A260E76060680F225205504087
:100B8000800202D5A160E76001E0E160A7602E70FD
:100B90000098410000220FE0A260E76060680F2229
:100BA00052055040800202D5A160E76001E0E1609B
:100BB000A7602E700099002236480068FFF782FD7A
:100BC000FEBDA260E7601BE061680120800502466F
:100BD0008A43A2600140E16010E06068012189055C
:100BE0000A468243A2600840E060E3E760680121B2
:100BF00089050A468243A2600840E0600199C9E77E
:100C0000E160A7602DE023484068FFF799FD1121BE
:100C10008A1B01D0002807D00F22E9685205114035
:100C2000A160E760EF60FEBD0121C905E960012A0E
:100C30000CD91046C82148436421FFF777FA696848
:100C40000022414313484068FFF73CFD0F22E9684A
:100C500052051140E160A760FEBD0F214905A1606A
:100C6000E7602E70FEBD07229205AAE70D21490517
:100C7000A160E76001218905C2E70321C905A160E0
:100C8000E7608910BCE70F214905B9E7340000206F
:100C900000050050F81C000010B500780321FFF794
:100CA000FFFD10BD0022D243830004490428CA502E
:100CB00002D3081820300277704700006803002034
:100CC000F0B50025ED43002A02D00023042601E000
:100CD000042308260B4C04E09F00E7597F1C04D036
:100CE0005B1CB342F8D32846F0BD26185DB220360F
:100CF00035709E00A151002AF5D1E1182031087706
:100D0000F1E7000068030020024909182020085676
:100D1000704700006803002070B50D460446206847
:100D2000002805D001682160416828468847F6E719
:100D300070BD0000F8B52348C16800293ED00E6898
:100D400021494C680769C078E11B0D022D0AED1C92
:100D5000002814D101201D4A000450601B4A403A6B
:100D600050601B49400008601A4908601A49012078
:100D700008602F20FFF7AEF912490120C870B54274
:100D800000D23546E81900020F4B000A40331860C4
:100D90000D4A5168001B091B0902090A0002000ADA
:100DA000C91C814209D9506818602F20FFF792F9B9
:100DB00001200749400480390860F8BD00F018FDA3
:100DC000F8BD000014000020001501404013014050
:100DD00080E200E000E100E000100140F8B50026EC
:100DE0000124154D23E06968F00047183878214642
:100DF0002A698140114218D08A432A6100F00CFB15
:100E00003A782146EB689140194003469340994255
:100E10000BD17978012901D0012100E000217B6804
:100E20004140002B01D010469847761CF6B2287836
:100E30008642D8D3F8BD00004C00002010B50E4902
:100E400000234A788C78A24212D0521CD2B24A7047
:100E5000022A00D14B704A78074B920018339A58F7
:100E60000260086910180002000A0861012010BD24
:100E70000360002010BD00001400002082688388F9
:100E80001A4003689A5C0A708168491C8160704747
:100E9000C26883881A4003689954C168491CC160BC
:100EA000704710B50446C0B2FFF7C4FC204610BD21
:100EB000F8B50746104E0125BD403068FFF740FCED
:100EC00000280DD10D4C2069284207D1384600F08A
:100ED000A3FA0028E06804D0284303E0A843206177
:100EE000F8BDA843E0602069002228432061A16882
:100EF0003068FFF7E7FBF8BD341D00004C00002010
:100F00001048018CC9B2012917D1818C090714D16D
:100F1000018D09060A0F03D1828D1206120F0ED021
:100F2000090F012903D1828D1206120F07D0032960
:100F300003D1808D0006000F01D0002070470120F2
:100F400070470000C00F00F002680A60002A0160CC
:100F50007047000010B50448017AC90702D0007834
:100F6000FFF79EFD10BD000034000020F8B52C49AD
:100F7000C8680A690C780F7989688646944600919A
:100F80003EE00099E20055182A7836E018235343D2
:100F90006968521CC918AB78D2B2934200D10022C2
:100FA0000B78022B02D0032B27D123E04E68034697
:100FB000014603E0B14204D00B46C96900291CD0A8
:100FC000F8E7002919D08B4208D1C069002805D163
:100FD000144F0126BE600026B44601270E68C96979
:100FE000D961002909D00B689B190B6005E00174D9
:100FF000C06900E000210028F9D169789142C5D18B
:101000002146641EE4B20029BBD1054962460A614B
:10101000C8600F71704501D00120F8BD0020F8BDF7
:101020001400002000100140F8B5044631480026A5
:10103000C168009107784EE02E48F90080680D18CD
:1010400043E0002C02D02046E4691FE028781821F4
:1010500041436A68401CC0B251182870AA78904277
:1010600000D12E700A784868012A30D1027C002A0B
:101070002DD18A684260CA6882600A69C260496983
:1010800081611C490979002900D0466019494368EB
:101090000A699C46991A0902174B090A994202D219
:1010A0008268891807E06146511A09028268090AB4
:1010B0008A4202D9511A016000E0066046600121AF
:1010C00086600174C66100F037FC002CB9D1287825
:1010D00069788842BAD138467F1EFFB20028ABD16A
:1010E0000448C1680098814201D00120F8BD002069
:1010F000F8BD000014000020FFFF7F00264A88B0E2
:1011000007CA04AB07C3254800900120019024487A
:101110000290FF20013003900323224A694604A86D
:10112000FFF738FB002801D0FFF736FA1EA0FFF7C3
:1011300097F90023214A05211846FFF77BFA00287A
:1011400001D0FFF729FA00F047F8002801D0FFF797
:1011500023FA002000F05EF8FFF7F2FB184A194965
:101160000320FFF74DFC002801D0FFF715FA0D22F0
:1011700001210020FFF720FC01210E220846FFF785
:101180001BFC0F2203210220FFF716FC1022002176
:101190000320FFF711FCFEE7AC1C0000000000205C
:1011A00064000020451A00000D0A204576656E7423
:1011B000205374617274210D0A0000006401002044
:1011C00049090000660600000121890740180068EF
:1011D000002800D00120704770B50C4C207A002800
:1011E00001D0852070BD0025656025602561084916
:1011F000FF20E5600861064801264038866103212A
:10120000284600F037F82672284670BDB00300204B
:101210004005004070B504460020FFF727FB124D43
:10122000A87A002805D0002C16D0616801208847D4
:1012300012E0002C04D00C4821461030FFF784FE49
:10124000E868002808D10949086009490220486077
:1012500006490120FC390860E868401CE86000206D
:10126000FFF708FB70BD0000B00300200401004040
:10127000000300408207D30EFF229A408907090E1F
:1012800010B5994000280BDA03071B0F083B9C0898
:101290000C4BA400E318DC6994430C43DC6107E0C9
:1012A0008408094BA400E418236893430B4323608C
:1012B000C106C90E0120884004490860044908603D
:1012C00010BD000000ED00E000E400E080E200E07E
:1012D00000E100E0F3B581B00F46019800F070FA2C
:1012E000012400281E4E019817D0FFF70DFD80192C
:1012F0002030007F8009032802D0012806D007E0B3
:101300001848006901998C40204201D1022100E077
:101310000321019800F02CFAFEBD00F05DFA0028D0
:10132000FAD00198FFF7F0FC05468100C81D0E4A6F
:10133000F93089180A6980B222430A610B494018C2
:1013400000210160002FE7D00198FFF7DDFC80004D
:1013500030580028E0D00648AC404460FEBD000094
:101360006803002000050050006500400060004058
:1013700000630040FEB5044623480E4600192021B4
:1013800041560027C8171346401C01D0082738E0F3
:10139000F27819462046FFF793FC0546401C2FD0F3
:1013A000B078002807D01948A1000918086802225F
:1013B0009043086007E000217378204600910A46B8
:1013C000019100F0AFF9F078002810D01048AA0081
:1013D0001018317802690F4B1A400261E206D20CF4
:1013E0008907890B0A4301690A43026109E006483B
:1013F000327840192030017F92011143017700E0DB
:1014000004273846FEBD0000680300200007005096
:1014100000650040FFE0FCFF03490969C140C807BF
:10142000C00F00D0012070470005005070B5124D6C
:101430002879002801D0082070BD0F4900204039CC
:10144000421E0B182033401CC0B21A702028F8D35B
:1014500000242046FFF726FC641CE4B2082CF8D3D5
:1014600003210620FFF706FF01200449C00748605A
:1014700001202871002070BDA803002000630040F7
:1014800002480079002800D001207047A8030020FE
:10149000F3B52A4C0746E07E81B0002801D0082031
:1014A000FEBD002F00D1264F0126387831468140FD
:1014B00024488160386800F050F90021786800F015
:1014C00043F9214DB8696862787D397D0843E86643
:1014D00003CFE8606961387B083F01280FD1002104
:1014E000B86800F031F9387B314681401548816099
:1014F000F86800F032F9F968B868A96028610298C4
:1015000060603969216000280ED0FF230F481D3329
:10151000397F0022C250FF234533C2500D4A0C4888
:1015200050600220FFF7A6FE042028600020E0752E
:101530002076A075E676A076FEBD00004C03002064
:10154000D81C00000005005000250040002000408D
:101550008000020000230040F8B5104B81245E6833
:101560000022A4000E4D002E00D0AC60DF7D002FC5
:101570000BD01A7E002A04D0002E00D06C601120FF
:10158000F8BD18610122197604E0D9750024D860ED
:101590005C761C7600F012F8F8BD00004C030020C9
:1015A0000023004010B5044CA07E002803D100F0B9
:1015B0006BF90120A07610BD4C030020F8B5234D37
:1015C000A87E104301D100F05FF96868204C002824
:1015D00005D081201F49800048600020F8BDFF2011
:1015E000453000212150FF212531204600F0DAF856
:1015F0000546FF210931204600F0D4F80746FF21B7
:101600004531204600F0CEF806463946314329439D
:10161000E9D02846304306D100F00CF90B48C17DD3
:10162000407E8142DFD800210848002DC17501D0DD
:101630000320F8BD002E01D00F20F8BD817E0120CF
:10164000002901D02060C8E76060C6E74C03002095
:10165000002000400023004010B5034600F048F889
:10166000002801D0112010BD034A0020917593601D
:10167000908200F003F810BD4C030020F8B500265E
:10168000194FFF251D357E510120B86000F0B4F9D7
:10169000164C6168002910D022E0FF270137294647
:1016A000114800F07FF8002802D1A08AB842F6D194
:1016B000A08AB84201D000F09FF9A08AA17D88429B
:1016C000EBD3A18AC81FF9380CD0074F29463846FA
:1016D00000F068F80028F9D00120F8600020A0751B
:1016E0003046F8BD0F26F9E7002000404C030020EB
:1016F0000248807D002800D0012070474C03002064
:1017000030B552000A439900039C0A432102049D0C
:101710000A4329040A43024980004018026030BD90
:101720000007005030B552000A439900039C0A4359
:101730002102049D0A4329040A43024980004018FB
:10174000026030BD000700501CB500220B4600921D
:1017500011460192FFF7D4FF1CBD1CB5002100917A
:101760000B46012201911146FFF7CAFF1CBD000084
:10177000820006481018026803231B049A43026083
:10178000026809040A430260704700000007005025
:10179000034940180068012800D00020704700006D
:1017A000006000404058002800D00120704703220C
:1017B000120280184068084000D0012070470000E5
:1017C0000449081820214156042901DB01207047F3
:1017D0000020704768030020044908182021415662
:1017E000042901D2012070470020704768030020BF
:1017F00070B501240B49600408600B4940108860F3
:10180000094940398860094D6C602F20FEF762FC61
:10181000AC60074D00242F202C61FEF75BFCEC70C0
:1018200070BD000080E100E0401301400010014065
:101830001400002030B50A48FF21C57D0022094C64
:101840000931094B002D625007D09969437EC26867
:10185000D154417E491C417630BD986930BD0000AD
:101860004C03002000200040002500401FB501234C
:101870006A46137010720348019106C86846904783
:101880001FBD00004C030020FF2205482532002127
:101890008150FF2209328150012101607047000010
:1018A00000200040FEB51F4C00252769E06802902B
:1018B0006846FFF7C3FA0190FFF758FB0646019808
:1018C000002822D000230098E16817E00E680A463D
:1018D000864202D9301A086012E0801BF3180026F5
:1018E0001660D668D169B446002E07D0FE183602BD
:1018F000360A566066469660D56115460029E5D1E0
:101900002846E160FFF790FB06E02846FFF78CFBD6
:10191000002801D1002E02D00298FFF70BFA002018
:101920002071FEBD1400002001200249000508605E
:101930007047000000E200E010B50E4BD9680029A6
:1019400006D002680C68A24204D8A21A0A60C161DB
:10195000D86010BD0B4604E00B46C969121B002974
:1019600004D00C689442F7D3A41A0C600260C161E1
:10197000D86110BD14000020F8B51D4DEC68002C96
:1019800034D01C48002740682969401A0602360AEC
:101990002068B04218D8361AC7192246107CE4696C
:1019A00000280FD0002010746B69002B07D09169BC
:1019B00050699847002805D0FEF7EEFD02E0516916
:1019C00090698847002CE3D16978A878814206D1D4
:1019D000401CC0B2A870022801D10020A8700449A0
:1019E0000006800D18310F50FFF79EFFF8BD000074
:1019F0001400002000150140FF2107481D3100227E
:101A000042500648828A8168895C828A521C82829E
:101A10000348C16170470000002000404C030020D3
:101A2000002500401FB500216A461170107204485D
:101A300082680192817506C8684690471FBD000004
:101A40004C03002010B50178022901D0012902D1F0
:101A50004068FEF7A1FD10BD7CB50178284D012935
:101A60000AD002292FD000292CD129462548FEF77B
:101A70009FFD002833D036E04068017821481038B7
:101A8000FEF7B3FD1F4C103C002805D001216A462B
:101A900011700190684608E0A068E168081A012802
:101AA00005D1002069460870684669688847A068C3
:101AB000E168081AA188884204D811480121401C15
:101AC000FFF74AFD7CBD02216A461170C068019093
:101AD0000B480121401CFFF73FFD68460CE0012147
:101AE0000748FFF7B9FD07488168C0688842E9D117
:101AF0000320694608706846696888477CBD000015
:101B0000040000203C030020F0B5454D012185B0C4
:101B100049022846FFF74BFE01270026414C0028CA
:101B200024D0FF2125312846FFF73CFE00281DD098
:101B3000FF2025302E5081203B4980008860A07E08
:101B4000002800D16F60022168460170374908689B
:101B500008600390E17D68460172E0680190E675D7
:101B6000267606CC6846083C90472BE004212846A0
:101B7000FFF71DFE002825D0FF2109312846FFF779
:101B800011FE00281ED0FFF755FEE07D617E8842E1
:101B900018D1207E002808D0627EE168E0752069B7
:101BA000E0602676667610460AE0A07E002800D126
:101BB0006F6081201C4980008860E675607EE16866
:101BC000FFF754FEFF211D312846FFF7EBFD0028EB
:101BD0000DD0A18AA07D814202D2FFF70DFF06E061
:101BE000FF211D316E50002801D0FFF71BFFFF21A0
:101BF00045312846FFF7D6FD00280ED0FF2045309E
:101C00002E50A07E002800D02F60E07D002804D058
:101C1000E675607EE168FFF729FE05B0F0BD0000C3
:101C2000002000404C03002000230040802400409E
:101C3000EFF30580C005C00D1AD0103840B200285F
:101C400008DA0107090F083989080C4A8900891840
:101C5000C96904E081080A4A89008918096880076F
:101C6000C00EC1400806800F012803D0032803D00E
:101C700002207047002070470120704700ED00E00F
:101C800000E400E042788378521CD2B2934200D143
:101C900000220378934201D1002070470A70416806
:101CA0004078182250430818704700000B09080AB2
:101CB0000100000000E0D701090000000B00000057
:101CC0000A00000008000000000000000000000002
:101CD00000E0D70103000000090000000B00000035
:101CE0000A000000080000000000000000000000E2
:101CF00000E0D70103000000C4030020E40300203B
:101D00001004002011000000120000001300000069
:101D10001400000011000300A108000012000300DD
:101D2000A108000013000300A10800001400030034
:101D3000A108000030040020030000005C1D00002A
:101D400000000020640000008E040000C01D0000A0
:101D500064000020EC0B00009E0400000000000066
:101D60000000000000000000000000000000000073
:101D70000000000000000000000000000000000063
:101D80000000000000000000000000000000000053
:101D90000000000000000000000000000000000043
:101DA0000000000000000000000000000000000033
:101DB0000000000000000000000000000024F4000B
:04000005000000C136
:00000001FF
