:020000040000FA
:1000000050090020F50000000F0100001101000060
:1000100000000000000000000000000000000000E0
:1000200000000000000000000000000013010000BC
:100030000000000000000000150100001701000092
:100040001901000019010000F90200001901000067
:100050001901000000000000F90100001901000072
:100060001901000019010000190100001901000028
:100070001901000019010000190100001901000018
:100080001901000019010000190100001901000008
:1000900019010000190100001901000019010000F8
:1000A000190100001901000000000000000000001C
:1000B0000000000000000000000000000000000040
:1000C0000348854600F044F800480047B9040000A2
:1000D00050090020401E00BF00BF00BF00BF00BF8E
:1000E00000BF00BF00BF00BF00BF00BF00BFF1D115
:1000F000704700000321094802680A43026008486B
:1001000002680A4302600748804707480047FEE745
:10011000FEE7FEE7FEE7FEE7FEE7000024050040FD
:100120005405004059020000C100000003460B4383
:100130009B0703D009E008C9121F08C0042AFAD29D
:1001400003E00B780370401C491C521EF9D2704723
:10015000064C0125064E05E0E36807CC2B430C3C1A
:1001600098471034B442F7D3FFF7AEFF4C0B0000B2
:100170006C0B000070B51520182318490322840069
:1001800064182260401C9842F9D90020144C154D87
:100190000122235C16469E40AE60401CC0B204287B
:1001A000F7D30F4A0020104B121F145CA4006418F0
:1001B0002360401CC0B20428F7D301200B49C007BC
:1001C00048600B490868FF221204904303229205FD
:1001D0001043086007494020086070BD00070050C8
:1001E000FC0A0000000500500C0003000063004002
:1001F00004E400E000E100E070B51448C16B0029A0
:1002000022D00021C163124E124D0C46305D296987
:10021000C140C807C00F13D10A2000F071F9305D4A
:100220002969C140C807C00F0AD10948001D015DF6
:1002300001208840696802468A43AA600140E9605B
:10024000641CE4B2042CE1D370BD000040610040A6
:10025000F80A00000005005010B500F009F9002868
:1002600005D01F491D484860C8131E4988611E48B3
:10027000018CC9B201290BD1828C120708D1028DE1
:100280001206120F042A03D1828D1206120F0AD011
:10029000012921D1818C09071ED1018D0906090F81
:1002A0000A2904D007E0114A01219160F5E7828D07
:1002B0001206120F05D00D290ED1808D0006000FF9
:1002C0000AD10B480168012904D00A49016001687C
:1002D0000129FCD1C021416110BD0000DFFF07C032
:1002E00000050040006C0040C00F00F00006004018
:1002F00000EC06407593000010B500F069FB10BDDE
:1003000002E008C8121F08C1002AFAD170477047DE
:10031000002001E001C1121F002AFBD1704700003C
:10032000BFF34F8F04490348C860BFF34F8F00BF2E
:10033000FDE700000400FA0500ED00E00EB5002125
:10034000029000916A4601910148FFF7E9FF0EBD56
:100350000140000010B58268C368934203D000F0EA
:1003600073F8002010BD052010BD002906D0002A1A
:1003700002D0531E134203D0092070470E2070474D
:100380000160838000218160C1600846704710B51C
:100390008268C3689A1A83889A4203D800F05EF88C
:1003A000002010BD042010BD70B50446224888B05E
:1003B0001E460D0042601CD0A888296882B21F48E2
:1003C000FFF7D3FF002815D1A889A96882B21B487E
:1003D0001030FFF7CAFF00280CD1202218496846C8
:1003E000FFF7A4FEA06806902079002804D0012120
:1003F00003E0072008B070BD00216846017506774C
:100400006079002800D00E2069464875E078029097
:10041000A0780390207801906078009009496846A0
:1004200000F0ACF80028E5D100F032F902480121D3
:10043000401C00F007F9DDE7040000201001002057
:100440000C0B000021090000826883881A400368B1
:100450009A5C0A708168491C81607047C268838811
:100460001A4003689954C168491CC1607047000074
:100470001048018CC9B2012917D1818C090714D108
:10048000018D09060A0F03D1828D1206120F0ED0BC
:10049000090F012903D1828D1206120F07D00329FB
:1004A00003D1808D0006000F01D00020704701208D
:1004B00070470000C00F00F00D4A88B007CA04ABB7
:1004C00007C30C480090012001900B480290FF20C8
:1004D000013003900323094A694604A8FFF764FF2B
:1004E000002801D0FFF72AFFFFF744FEFEE70000D7
:1004F000000B000000000020100000200D0900008B
:1005000031B5054C04E0401E00902046FFF7E2FDA7
:1005100000980028F7D138BDE70300008207D30E0A
:10052000FF229A408907090E10B5994000280BDA7E
:1005300003071B0F083B9C080C4BA400E318DC6965
:1005400094430C43DC6107E08408094BA400E418E1
:10055000236893430B432360C106C90E01208840E2
:10056000044908600449086010BD000000ED00E087
:1005700000E400E080E200E000E100E0F3B52A4C96
:100580000746E07E81B0002801D00820FEBD002F84
:1005900000D1264F012638783146814024488160B9
:1005A000386800F03EF90021786800F031F9214DFB
:1005B000B8696862787D397D0843E86603CFE860F2
:1005C0006961387B083F01280FD10021B86800F02D
:1005D0001FF9387B3146814015488160F86800F08A
:1005E00020F9F968B868A9602861029860603969E3
:1005F000216000280ED0FF230F481D33397F0022D1
:10060000C250FF234533C2500D4A0C4850600220AF
:10061000FFF784FF042028600020E0752076A07595
:10062000E676A076FEBD0000300100202C0B000015
:10063000000500500025004000200040800002001E
:1006400000230040F8B5104B81245E680022A4000E
:100650000E4D002E00D0AC60DF7D002F0BD01A7E37
:10066000002A04D0002E00D06C601120F8BD186163
:100670000122197604E0D9750024D8605C761C76D6
:1006800000F012F8F8BD0000300100200023004007
:1006900010B5044CA07E002803D100F003F901201E
:1006A000A07610BD30010020F8B5234DA87E104380
:1006B00001D100F0F7F86868204C002805D08120AF
:1006C0001F49800048600020F8BDFF204530002110
:1006D0002150FF212531204600F0ADF80546FF21CD
:1006E0000931204600F0A7F80746FF214531204692
:1006F00000F0A1F80646394631432943E9D028469F
:10070000304306D100F0A4F80B48C17D407E814201
:10071000DFD800210848002DC17501D00320F8BDA5
:10072000002E01D00F20F8BD817E0120002901D0CC
:100730002060C8E76060C6E730010020002000406C
:100740000023004010B5034600F048F8002801D00F
:10075000112010BD034A002091759360908200F033
:1007600003F810BD30010020F8B50026194FFF2511
:100770001D357E510120B86000F0A2F8164C61686A
:10078000002910D022E0FF2701372946114800F048
:1007900052F8002802D1A08AB842F6D1A08AB84205
:1007A00001D000F08DF8A08AA17D8842EBD3A18A08
:1007B000C81FF9380CD0074F2946384600F03BF8DF
:1007C0000028F9D00120F8600020A0753046F8BD5F
:1007D0000F26F9E700200040300100200248807D0C
:1007E000002800D0012070473001002030B55200B1
:1007F0000A439900039C0A432102049D0A432904E9
:100800000A43024980004018026030BD00070050D2
:100810001CB500220B46009211460192FFF7E6FF3D
:100820001CBD1CB5002100910B460122019111460F
:10083000FFF7DCFF1CBD4058002800D001207047A6
:100840000322120280184068084000D0012070473F
:1008500030B50A48FF21C57D0022094C0931094BFA
:10086000002D625007D09969437EC268D154417E01
:10087000491C417630BD986930BD00003001002030
:1008800000200040002500401FB501236A46137078
:1008900010720348019106C8684690471FBD0000CA
:1008A00030010020FF220548253200218150FF221F
:1008B0000932815001210160704700000020004092
:1008C000FF2107481D31002242500648828A816874
:1008D000895C828A521C82820348C1617047000091
:1008E0000020004030010020002500401FB50021FD
:1008F0006A4611701072044882680192817506C8B8
:10090000684690471FBD00003001002010B50178F7
:10091000022901D0012902D14068FFF70FFD10BD67
:100920007CB50178284D01290AD002292FD0002951
:100930002CD129462548FFF70DFD002833D036E09D
:100940004068017821481038FFF721FD1F4C103C0A
:10095000002805D001216A4611700190684608E020
:10096000A068E168081A012805D1002069460870CE
:10097000684669688847A068E168081AA1888842C3
:1009800004D811480121401CFFF75CFE7CBD022108
:100990006A461170C06801900B480121401CFFF7A6
:1009A00051FE68460CE001210748FFF7CBFE0748DF
:1009B0008168C0688842E9D10320694608706846AA
:1009C000696888477CBD00000400002020010020E9
:1009D000F0B5454D012185B049022846FFF730FFAB
:1009E00001270026414C002824D0FF21253128462C
:1009F000FFF721FF00281DD0FF2025302E50812039
:100A00003B4980008860A07E002800D16F600221F1
:100A1000684601703749086808600390E17D6846C0
:100A20000172E0680190E675267606CC6846083CBF
:100A300090472BE004212846FFF702FF002825D02D
:100A4000FF2109312846FFF7F6FE00281ED0FFF7E8
:100A5000FFFEE07D617E884218D1207E002808D00C
:100A6000627EE168E0752069E06026766676104671
:100A70000AE0A07E002800D16F6081201C49800020
:100A80008860E675607EE168FFF7FEFEFF211D319C
:100A90002846FFF7D0FE00280DD0A18AA07D814214
:100AA00002D2FFF70DFF06E0FF211D316E50002836
:100AB00001D0FFF71BFFFF2145312846FFF7BBFEA2
:100AC00000280ED0FF2045302E50A07E002800D0F8
:100AD0002F60E07D002804D0E675607EE168FFF7B6
:100AE000D3FE05B0F0BD0000002000403001002022
:100AF000002300408024004011121314151617180B
:100B00000B09080A0100000000E0D70109000000FD
:100B10000B0000000A0000000800000000000000B8
:100B20000000000000E0D701030000000900000001
:100B30000B0000000A000000080000000000000098
:100B40000000000000E0D701030000006C0B000073
:100B50000000002010000000000300007C0B0000DB
:100B600010000020400900001003000000000000F9
:0C0B700000000000000000000024F40061
:04000005000000C136
:00000001FF
