:020000040000FA
:10000000600C0020150100002F01000031010000EC
:1000100000000000000000000000000000000000E0
:10002000000000000000000000000000330100009C
:100030000000000000000000350100003701000052
:10004000B50A000039010000750C000039010000FC
:1000500039010000000000001D0900003901000006
:10006000D50B000039010000390100003901000002
:100070003901000039010000390100003901000098
:10008000390100000D0B00003901000039010000AA
:100090002D0B00003901000039010000390100007A
:1000A00039010000390100000000000000000000DC
:1000B0000000000000000000000000000000000040
:1000C0000348854600F08CFB0048004741220000B1
:1000D000600C0020401E00BF00BF00BF00BF00BF7B
:1000E00000BF00BF00BF00BF00BF00BF00BFF1D115
:1000F00070470000401E00BF00BF00BF00BF00BF30
:1001000000BF00BF00BF00BF00BF00BF00BFF1D1F4
:10011000704700000321094802680A43026008484A
:1001200002680A4302600748804707480047FEE725
:10013000FEE7FEE7FEE7FEE7FEE7000024050040DD
:1001400054050040350B0000C100000030B50B46DF
:10015000014600202022012409E00D46D5409D42A1
:1001600005D31D469540491B254695404019154627
:10017000521E002DF1DC30BD03460B439B0703D01C
:1001800009E008C9121F08C0042AFAD203E00B785C
:100190000370401C491C521EF9D27047024670B5CC
:1001A0004A40D30FDB0740002DD04A002AD0010E71
:1001B000140E000212020919400A520A8418E501BD
:1001C00004465443000A120A2E045043A41942194B
:1001D000200CC543AA18120C0125AD03521C52195C
:1001E00012047F39240400D0521C104301D4400073
:1001F000491EC2B20C06C0092018401C4008802AC3
:1002000002D003E0002070BD40084000002900DA61
:100210000020184370BD0000F0B51FB488B00B99E2
:100220000998002448400999C00F490049080991DC
:10023000C0070B990090490049080B91099908984B
:10024000A64608431CD00B990A98084318D0099871
:1002500001244000420D4800410D09982405000387
:10026000000B204309900B980003000B20430B90D8
:1002700050181C494018002201901446104605E011
:10028000002001460DB0F0BD032801DA034600E06E
:1002900003239C46C11A0AAE0AE05F0008ADED5B7D
:1002A0004F00F75B7D430027AA187C41491C5B1E69
:1002B0006145F2DD410004AB5A522104120C0A439D
:1002C000240C401C0828DFDB01980290009970463E
:1002D00001910090059B049A0799069800F0CFF8C9
:1002E000D0E700000DFCFFFF70B54B005B08034337
:1002F0000BD04B005C0D002633466542B341D4174A
:10030000AD1AA34102DB0020014670BD1205301872
:10031000514170BD10B500229623114600F069F8D6
:1003200010BDC20FD207400040080BD0C10D0723FB
:10033000DB01C91840020905400A1143C208400701
:1003400011437047002001467047CB0FDB0749007F
:1003500010B5490802460A4307D00A0D07240903CD
:10036000E401090B121B002A01DC002010BDC900AA
:10037000440F0C43C100E018D205801800F031F89A
:1003800010BDF0B51FB40646002082B005464024DB
:10039000019100901BE0019922460F46304600F083
:1003A00041FA049A059B801A994110D310461946C8
:1003B000224600F027FA361A8F4101972246012083
:1003C0000021009F00F01EFA38184D410090204691
:1003D000641E0028DFDC019B00982946324607B0E6
:1003E000F0BD002904DA401C490001D1400840005A
:1003F000704770B40024050C05D11024000402D10C
:10040000002921D01124050E01D100020834050F66
:1004100001D10001241D850F01D18000A41C0028FA
:1004200001DB4000641C002908D020252E1B0D464E
:10043000F540A14000D001212943084301061B1BC0
:10044000000ADB1D02D5002070BC7047DB051818C0
:1004500080180029F8DA401C4900F5D170BC40082A
:100460004000704710B5002B08DA0024401C6141A1
:1004700092185B411A4301D14008400010BDF0B50D
:100480001FB482B005460C0003D0084600F006FCFD
:1004900002E000F003FC203002460090214628468E
:1004A00000F0B0F9049B059A04460F461843114327
:1004B000084314D0184610431BD0009840210A1A54
:1004C0001846059900F0AEF905460E46009A0599C2
:1004D000049800F097F9084305D0012004E0204675
:1004E000394607B0F0BD0020C11705430E432C4329
:1004F000374300990E986305401A7905E40A0022F3
:100500000C43FD0A0A3002D500200146E9E7010547
:10051000101969410C9C0D9D00196941FFF7A2FF5C
:10052000DFE70000F0B507460846584087B0C00F27
:10053000049048000E46590040084908BC1A8841FA
:1005400005D2384631461E4617460B46024658002D
:10055000400810434CD0300D039040055900400D29
:10056000490D0590401A0290402872DA18030121C3
:10057000000B09050843019004980092002805D05B
:100580000199524200208841009201900298402136
:100590000A1A0199009800F035F905460C466B4699
:1005A00007CB00F050F9C0197141039A0E0D0023DA
:1005B000D71756401A467A40164344D0049A002A68
:1005C0002DD0029A012A039A15DC1205C01A914116
:1005D00001263605001C7141D20F059ED2070093FB
:1005E000019202962A462346FFF749FF07B0F0BD65
:1005F00038463146FAE71605224A0F46B218C01AA5
:10060000B74101210905001C4F4100187F411146E7
:1006100018187941E20F10436D19644113E0E207A5
:100620006D0815436408C2071443039A0126120596
:10063000C01A91413605001C7141CE074008304375
:100640004908C01851412A462346FFF70BFFCDE762
:10065000FFE7049801224000C117121A00238B41C2
:1006600004983146C417381AA141EEE730B401248A
:10067000E407634030BC55E730B40124E40761402F
:1006800030BC4FE70000E0FFF0B50C465C4085B0A1
:10069000E40FE40703944C000026640859009446D4
:1006A000490802460296224321D062460A431ED0E0
:1006B0006200570D4A000E032303550D0124024624
:1006C0002C492405781B1B0B360B4018234326436B
:1006D000614600901C46501AB44103D30098401C58
:1006E000009002E0921800985B41002803DA002095
:1006F000014605B0F0BD00200121090507468646E8
:1007000011E064461D46141BB54106D36546521BD5
:10071000B341744607430C43A646CD074008490839
:10072000284392185B4105460D43EAD11046184311
:1007300013D06046194650407140084306D06046C9
:10074000101AB34106D20122002306E00022012341
:10075000DB0702E00122D2435310009874460105E2
:10076000381C6141029C039D00196941FFF77AFE24
:10077000BFE70000FD0300004A0009030123090B45
:100780001B0519430A4B10B5520D9A4202DA00209C
:10079000014610BD064B34339A4203DC9A1A00F02E
:1007A00041F810BD034BD21800F02CF810BD00002A
:1007B000FF030000CDFBFFFF10B5002904DB01247F
:1007C000E40740428C412146002B04DB1C460123F8
:1007D000DB075242A341994200D1904210BD000074
:1007E000064C0125064E05E0E36807CC2B430C3C84
:1007F00098471034B442F7D3FFF766FC002F00008F
:10080000202F000010B5202A04DB0146203A914039
:10081000002010BD914020239C1A0346E340194359
:10082000904010BD10B5202A04DB0846203AD04085
:10083000002110BD0B46D340D0402024A21A914085
:100840000843194610BD10B5202A06DBCB17084611
:10085000203A1041C1170B4306E00B461341D0402C
:100860002024A21A91400843194610BDF8B500256E
:1008700001242046A840C001000F02D0284602F003
:1008800039F86D1C202DF4D30F21194849058160DA
:100890000021C160174F184E0125346017480460CD
:1008A00038680028FCD0B068FFF734FDFFF739FD49
:1008B000134A144BFFF7B0FC0922D243FFF714FD93
:1008C000FFF743FD1049FFF769FCFFF72AFD0246D9
:1008D0000B460EA000F0D2F9FF20F53001F03AFDF2
:1008E000162002F029F86D1C0A2DD6DDF8BD000097
:1008F000000500500071004000750040007000408D
:10090000333333333333F33F00004040414443201B
:1009100056414C55452025660D0D0000F0B50025CB
:10092000FF248BB0013401262F460195204602F0AA
:100930000FF8002808D047484068304204D04648A5
:100940000021201835430160241D76007F1CA4B2CD
:10095000042FEBD3FF207D3001F0FAFF002807D0F1
:100960003E4800210160400705433D480069019071
:100970003C4C280712D0012700262F420AD03A48C3
:10098000B200111808690969C004C00E8903A25891
:10099000890F90477F00761C042EEED3002D57DA86
:1009A00000200590401E4DE0A119403108788506D1
:1009B000AD0E42B2521C39D00121A940089A0091D3
:1009C000114233D080090390284601F03FFA80009D
:1009D00020580490002802D10398032826D10398B8
:1009E0000099032802D10598084305901F4AA800E2
:1009F00080180068019A8003800F114202D00228FB
:100A000002D013E0032811D10399032907D102284A
:100A10001CD00221284601F07FFF7F1CFFB2049802
:100A2000002803D0049A284603999047761C042E88
:100A3000BAD3002F0CD00A4800690199884207D028
:100A40000190059800273E460890ADE70321E1E7B5
:100A50000BB0F0BD00630040006000407C610040CE
:100A6000000500507403002000650040000700509E
:100A70008307FF22DB0E9A408907090E9940002860
:100A80000BDA0007000F0838830808489B00181885
:100A9000C36993430B43C3617047830804489B00B9
:100AA0001B181868904308431860704700ED00E079
:100AB00000E400E0F8B5FF20013001F043FC002421
:100AC00001250F4E0F4F002808D00F480460012069
:100AD000B0607D720021381D01F0C0F9FF200530A3
:100AE00001F030FC00280AD00748001D04600220F5
:100AF000B060BD7203480121103001F0AFF9F8BDBC
:100B000000030040BC0300200001004010B506496E
:100B10000020086048608860C86003494039086068
:100B2000486002F009F810BD4011014010B501F015
:100B300099FF10BD10B501F085FA002805D01F49B6
:100B40001D484860C8131E4988611E48018CC9B2FF
:100B500001290BD1828C120708D1028D1206120FC7
:100B6000042A03D1828D1206120F0AD0012921D145
:100B7000818C09071ED1018D0906090F0A2904D0AD
:100B800007E0114A01219160F5E7828D1206120FEC
:100B900005D00D290ED1808D0006000F0AD10B481B
:100BA0000168012904D00A49016001680129FCD1CA
:100BB000C021416110BD0000DFFF07C000050040FB
:100BC000006C0040C00F00F00006004000EC064042
:100BD0007593000010B50C480C4A4178491CC9B205
:100BE000417054680023002C03D05360084C01224C
:100BF000E260032900D14370407803498000091D59
:100C000008580449086010BD0000002040810040E1
:100C100000800040408500400F48002141600421D1
:100C20000161032181600C480C49403001600C498E
:100C3000416001200B49400448600B480168C02214
:100C4000090A0902114301600120084A01021160EA
:100C5000074908607047000000850040A086010039
:100C600040420F000083004008E400E000E100E0A3
:100C70000080004010B502F027F810BD0FB410B589
:100C800003A9044B044A029800F0F6F810BC08BC13
:100C900004B01847E71F00001C0000202021020CB0
:100CA00001D010211046020A01D01046083902096D
:100CB00001D01046091F820801D01046891E420843
:100CC00001D0881E7047081A704730B47446641EFD
:100CD0002578641CAB4200D21D46635D5B00E318BF
:100CE00030BC184702E008C8121F08C1002AFAD118
:100CF00070477047002001E001C1121F002AFBD19C
:100D000070470000F0B51FB486B00998089A030D2B
:100D10000021024314D05148514A18185043051479
:100D20001198012810981AD0281A401C00264D4FFF
:100D30004D49009601910490002812DA444211E0D6
:100D40001198012449A3012801D11098C1430698A4
:100D5000119A84600360C26041600BB0F0BD4042F4
:100D6000E4E70446210500203F4A001C514103915D
:100D7000029012E0E00707D032463B460199009806
:100D8000FFF74AFA0191009032463B461046194659
:100D9000FFF742FA06460F466410002CEAD1049889
:100DA000039B0028029A0999089806DAFFF734FA9B
:100DB000019B009AFFF730FA05E0FFF765FC019B05
:100DC000009AFFF761FC04460E460022284BFFF70D
:100DD000F3FC03D80020C043014607E00022254B66
:100DE00020463146FFF79EFBFFF7C6FC102409E0C2
:100DF000002C0ADB0A220023FFF7C3FA079B3032DC
:100E00001A55641E02460A43F2D11122641C079B44
:100E1000121B1C19119B012B03D0012308430ED177
:100E20000AE0084304D0112010900020119077E7C9
:100E30001098151A6D1E0BE01098824202DD0023F7
:100E40006D1C03E0824201DA00236D1E002BEED000
:100E5000069811998260C16030C07EE701FCFFFFF7
:100E6000104D0000000014400000F03F3000000072
:100E70000000F0430000E03FFFB597B006460025B4
:100E800018E2252877D100242746FD49049400E084
:100E90000443761C32780120203A90400842F7D172
:100EA00030782A280ED002223078014630390929BC
:100EB00016D804990A235943303940181443761C34
:100EC0000490F1E7189802C804911890002904DAF8
:100ED0000120400304434842049002200443761C4E
:100EE00030782E2814D1042004437078761C2A28E8
:100EF00009D11898761C80C8189009E00A214F4340
:100F0000303FC719761C3078014630390929F5D9A8
:100F100030786C2810D006DC4C281AD068280ED007
:100F20006A2817D104E0742813D07A2812D110E06F
:100F30000120400504430CE00121090501E00321E3
:100F400009050C437178814203D101200005241862
:100F5000761C761C3078119066280BD013DC58284C
:100F60007DD009DC00287BD04528F6D04628F4D077
:100F700047281AD1A5E118E0632835D0642870D03D
:100F8000652812D19DE170286CD008DC6728F1D06B
:100F900069287BD06E280DD06F2806D1BAE073285F
:100FA0002ED0752871D0782859D01A9A199990475F
:100FB0006D1C7EE16002400F022809D003280DD08D
:100FC0000428189801680DD00D60001D189070E17C
:100FD0001898EA1701680D604A60F6E718980168EA
:100FE0000D80F2E70D70F0E718986A4601781172EB
:100FF000001D18900020507202A80090012005E00A
:10100000189802C8189000200091C04361070DD5C0
:10101000002101E00199491C0191B94212DA814293
:10102000F8DB009A515C0029F4D10BE0002101E0CB
:101030000199491C01918142FADB019A0099895C6E
:101040000029F5D1019904981A9B471A2146384680
:10105000199A00F097FA0199401945180BE04FE0F2
:101060002CE113E04EE0009800990078491C0091B3
:101070001A9A199990470198401E0190401CF2D18C
:10108000214638461A9B199A10E137E00A200021C0
:10109000009001916002410F022907D0189A01CAFD
:1010A0001892C2179446032908D00AE01898C01D68
:1010B000C108C90005C91891944607E000B2C217DB
:1010C0009446042902D140B2C1178C4600226146E1
:1010D000944506DA0A460021404291418C462D2172
:1010E00002E0210504D52B216A461173012103E09A
:1010F000E10701D02021F7E7029155E00A200AE03C
:10110000102008E0102000900021042004430191E9
:10111000082703E008200021019100906002410FA0
:10112000022907D0189A01CA18920022944603296E
:1011300008D008E01898C01DC108C90005C9189159
:10114000944603E080B2042900D1C0B2002102918C
:10115000210729D51199702906D0009A1021019BE9
:101160004A401A4305D00EE040216A46117301211E
:1011700008E06146014306D030216A461173119997
:10118000517302210291009A0821019B4A401A439F
:101190000AD16146014301D1610705D530216A4674
:1011A000117301217F1E02911199582904D035A194
:1011B0000E910DA90D910DE037A1F9E76146019B54
:1011C000009AFFF7DEF80E9B8C469B5C0D9A521E30
:1011D0000D92137061460143F0D10D9805A9081ACC
:1011E00020300190600703D501200004844300E013
:1011F00001270198874201DD381A00E0002001999B
:1012000000904118029809180498401A0490E003CD
:1012100006D421461A9B199A049800F0B3F945198F
:10122000002706E003A81A9AC05D199990476D1C23
:101230007F1C02988742F5DBE0030CD521461A9B00
:10124000199A049800F09EF9451904E01A9A302082
:10125000199990476D1C0099481E00900029F5DCF3
:1012600008E00D980D990078491C0D911A9A19996A
:1012700090476D1C0199481E01900029F1DC63E143
:10128000092801003031323334353637383961625C
:101290006364656600000000303132333435363720
:1012A00038394142434445460000000000F05AF9F5
:1012B0004519761C3078002800D0E2E528461BB09E
:1012C000F0BD600700D406271898C01DC108C900EA
:1012D00048680A680831C30FDB071891190001D06C
:1012E0009CA108E0210501D59BA104E0E10701D004
:1012F0009AA100E09AA1430011985B08109165281B
:101300000CD006DC452809D046281DD0472841D1FD
:1013100041E0662818D067283CD13CE00021112F1D
:1013200001DB112000E0781C0191009008A911A8B0
:10133000FFF7E8FC139905910021119A15927F1C83
:1013400012980197009150E00120C00703900120FE
:10135000019008A9009711A8FFF7D4FC139A1499DB
:1013600005920022119B009212981593059A019202
:10137000002901D0104602E0791C40180190381A6B
:1013800001D5019804E04042401E0090781C019075
:10139000C01B029043E0012F00DA01270021112F2A
:1013A00001DD112000E038460191009008A911A844
:1013B000FFF7A8FC13990591119A00211298159234
:1013C0000091019721070CD40599B94201DB0199DD
:1013D00000E00191012904DD159A491E515C302974
:1013E00006D0B84201DA011D05DA0121029115E0AB
:1013F0000199491EEDE7002805DC0099411800918C
:101400000199091A03E0019A411C914200DD019102
:101410000099401A401C02900120C0070390200749
:1014200006D402990198814202DB0020C043029059
:1014300000206946C87707AF012103980337C90721
:10144000884224D0022011902B201290039800286B
:101450000CDA404203902D20129007E00A210398F5
:10146000FEF774FE30317F1E039039701199481ECB
:1014700011900029F2DC03980028EFD1791E129810
:1014800008703078202108404530BF1E387006A80B
:10149000C01BC01D039010980078002800D00120C8
:1014A000019941180298C01709180398091804985F
:1014B000401A401E0490E00306D421461A9B199A54
:1014C000049800F05FF8451910980078002803D0C0
:1014D0001A9A199990476D1CE00324D521461A9B4E
:1014E000199A049800F04EF845191CE0009800285D
:1014F00007DB00990598884203DD1598405C19992F
:1015000001E0199930201A9A904700986D1C401CF0
:1015100000900298401E0290002804D11A9A2E20B2
:10152000199990476D1C0199481E01900029DDDC36
:1015300005E038781A9A7F1C199990476D1C039919
:10154000481E03900029F4DC21461A9B199A04983E
:10155000ACE600002D0000002B0000002000000081
:1015600000000000F8B5044600251E461746880412
:1015700004D405E039462020B0476D1C641EF9D51F
:101580002846F8BDFFB50446002581B01E46C803B5
:1015900001D5302700E02027880404D505E038462F
:1015A0000399B0476D1C641EF9D5284605B0F0BDFF
:1015B000044842680121C9050B46934383600A40F1
:1015C000C26070470005005070B50024064D06E06B
:1015D0006968E000085C012100F048FF641C28787D
:1015E0008442F5D3002070BD58000020F8B51546A0
:1015F0000C460646052A01D20720F8BD01F00CF87A
:10160000002803D100F0DEFF0028F6D110490020A9
:101610004E600C70C8608D6008610E4D0DE0E000FA
:1016200069688019009181786A46517000780A4A89
:10163000694600F06BFF0028DFD12046641EE4B24B
:101640000028ECD1054A0021024800F04DF8F8BD11
:1016500058000020F82E0000F51F0000211F000098
:10166000BFF34F8F04490348C860BFF34F8F00BFDB
:10167000FDE700000400FA0500ED00E00EB50021D2
:10168000029000916A4601910148FFF7E9FF0EBD03
:101690000140000010B58268C368934203D000F097
:1016A0008FFC002010BD052010BD002906D0002AA7
:1016B00002D0531E134203D0092070470E207047FA
:1016C0000160838000218160C1600846704710B5C9
:1016D0008268C3689A1A83889A4203D800F07AFC19
:1016E000002010BD042010BD0A4B9B68002B07D0C2
:1016F000002A07D0002805D00068037C002B03D007
:10170000082070470720704700230374417442612A
:101710001846704720000020FFB59007002581B0D3
:1017200014460E46002832D11B4F002C31D001F058
:101730003FF9049878610320387033461821224617
:1017400000204B43BC601834C10089180D704D70E7
:101750008E704C601C19401C0328F5DBFD607D7009
:1017600001240E48BD702405046003211420FFF7F6
:101770007FF90B4804600B4C0198A06003211120F5
:10178000FFF776F960683861002005B0F0BD0720EA
:10179000FBE7BD60FBE700002000002080E200E0E6
:1017A00000E100E000150140FEB50D461B4917465B
:1017B0008968044600292AD0002C28D0052D01D2A2
:1017C0000720FEBD6069002821D0607C012820D060
:1017D000002601F00DFBC0001049019089684018F7
:1017E000694601F02FFB002815D0012101700C493A
:1017F000446049680830E2C0084901988968411886
:1018000068460078487001F06FF90020FEBD08209E
:10181000FEBD2E46DDE70420FEBD000020000020B6
:1018200000150140F8B5134D0446A96800291CD0E5
:10183000002C1AD06069002817D00026267401F009
:10184000D7FAC700A8686946381801F0FBFA0028E3
:101850000DD0022101704460A868391868460078EC
:10186000487001F041F93046F8BD0820F8BD042069
:10187000F8BD00002000002070B50446224888B062
:101880001E460D0042601CD0A888296882B21F48FD
:10189000FFF70BFF002815D1A889A96882B21B4861
:1018A0001030FFF702FF00280CD1202218496846AB
:1018B000FEF762FCA06806902079002804D0012180
:1018C00003E0072008B070BD002168460175067767
:1018D0006079002800D00E2069464875E0780290B3
:1018E000A0780390207801906078009009496846BC
:1018F00000F09AFE0028E5D100F020FF0248012107
:10190000401C00F0F5FEDDE7100000203803002049
:101910007C2E0000192C000010B501460A48FFF784
:10192000D6FE04000ED100F0AFFF00280AD107490F
:101930000548FFF7AFFE002804D10121034800F05D
:1019400057FF0446204610BD480300201000002029
:1019500000B500F005F800BD00B500F009F800BDC5
:1019600072B602480168491C0160704718000020E7
:1019700003490868401E086000D162B67047000045
:1019800018000020F8B507460024234802E0641C34
:10199000042C1AD2A2008258BA42F8D1042C14D2D4
:1019A0001D481E4E0C38002929D001290ED00329CC
:1019B0000BD16000201880194578002D05D01848FB
:1019C0000169002901D028468847F8BD61006118E7
:1019D000755C8E19717800290CD011490A2249686A
:1019E000806851430E4A521CFFF7DEFE002801D1E9
:1019F0000B4847700A48B17814300155DDE780681C
:101A0000FFF710FF06486100611814308919005D66
:101A10008D78A842D1D0F8BDC82E00001004002057
:101A20004000002010B5FFF7CFFD10BD70B50D28A8
:101A30000DD001240E2810D00F282AD0102805D14F
:101A40001EA0FFF71BF91F49E005C86070BD1EA06E
:101A5000FFF714F9FEF70AFF70BD1CA0FFF70EF99F
:101A60001B480021016081050C6001680029FCD041
:101A7000FFF7D2F81849174808611948174901615A
:101A800018494161154A121D8261C161032101603B
:101A900070BD15A0FFF7F2F80124FF25F5352146AA
:101AA00014A0FFF7EBF8022000F046FF284600F0F4
:101AB00051FC641C0A2CF2DD70BD00004C45442032
:101AC0004F4E0000000500504144430050574D0068
:101AD00000010040031713000065004040810040F2
:101AE00000F50140006000405649425241544F52B7
:101AF0000000000025640D0D0000000070B50023FB
:101B0000042811D2440004190D4D012A02D10129E3
:101B10000DD0002246008019094E801900290CD0F2
:101B2000012906D0032906D00723184670BD0D30C1
:101B3000C2B22A55F9E74270F7E78270F5E7000074
:101B40001004002070B50E46204905464E608D6099
:101B500000200A61A9071ED5002401221146204653
:101B6000FFF7CCFF641C042C02D20028F5D012E051
:101B7000002810D1720804211548FFF737FD00280E
:101B800009D1FFF721FD002805D11148114A002194
:101B90001438FFF7A9FDE90706D00F220E495205B8
:101BA0008A600023CB608A6100280DD108480B4A67
:101BB00000211C38FFF798FD002805D10448084A89
:101BC00001211838FFF790FD70BD00004000002093
:101BD000D82E0000DD1D00000005005099200000F7
:101BE000B1150000FEB57A4D0722EB6892059A43C5
:101BF00002936B6800939C0006461B19002001218C
:101C0000019349050746734C3300FFF75EF8180D42
:101C10001515374755677C887F8891DE9E9E9E9E6E
:101C20009EC8CED1D8DEDE140F21029A4905914319
:101C3000A160E7602F70FEBDA260E76060680F22C0
:101C400052055040800209D5A160E760022E02D102
:101C5000E120C0000AE07D20400107E0E160A760CC
:101C6000022E01D1C82001E0FF2091302E706421A6
:101C7000FEF76CFA0099414300223FE0A260E76062
:101C800060680F2252055040800204D5A160E760D1
:101C900019204001EAE7E160A760E3E7A260E7609E
:101CA00060680F2252055040800202D5A160E760B3
:101CB000D1E7E160A760D7E7A260E76060680F2224
:101CC00052055040800202D5A160E76001E0E1606A
:101CD000A7602E700098410000220FE0A260E7602C
:101CE00060680F2252055040800202D5A160E76073
:101CF00001E0E160A7602E7000990022364800687C
:101D0000FFF752FDFEBDA260E7601BE061680120A5
:101D1000800502468A43A2600140E16010E06068ED
:101D2000012189050A468243A2600840E060E3E79A
:101D30006068012189050A468243A2600840E0608C
:101D40000199C9E7E160A7602DE023484068FFF7EB
:101D500069FD11218A1B01D0002807D00F22E968F4
:101D600052051140A160E760EF60FEBD0121C90589
:101D7000E960012A0CD91046C82148436421FEF7C6
:101D8000E5F969680022414313484068FFF70CFDFC
:101D90000F22E96852051140E160A760FEBD0F21E6
:101DA0004905A160E7602E70FEBD07229205AAE7F3
:101DB0000D214905A160E76001218905C2E70321E2
:101DC000C905A160E7608910BCE70F214905B9E7A3
:101DD0004000002000050050BC2E000010B5007827
:101DE0000321FFF7CFFD10BD0022D2438300044939
:101DF0000428CA5002D30818203002777047000028
:101E000074030020F0B50025ED43002A02D0002322
:101E1000042601E0042308260B4C04E09F00E75948
:101E20007F1C04D05B1CB342F8D32846F0BD2618B3
:101E30005DB2203635709E00A151002AF5D1E1181F
:101E400020310877F1E700007403002002490918E7
:101E500020200856704700007403002070B50D461E
:101E600004462068002805D00168216041682846A2
:101E70008847F6E770BD0000F8B52348C16800291F
:101E80003ED00E6821494C680769C078E11B0D02FD
:101E90002D0AED1C002814D101201D4A00045060B9
:101EA0001B4A403A50601B49400008601A490860CC
:101EB0001A49012008602F20FEF71CF91249012061
:101EC000C870B54200D23546E81900020F4B000A2F
:101ED000403318600D4A5168001B091B0902090AAA
:101EE0000002000AC91C814209D9506818602F20DD
:101EF000FEF700F901200749400480390860F8BD69
:101F000000F056FDF8BD0000200000200015014043
:101F10004013014080E200E000E100E000100140D9
:101F2000F8B500260124154D23E06968F000471834
:101F3000387821462A698140114218D08A432A61A3
:101F400000F036FB3A782146EB6891401940034691
:101F5000934099420BD17978012901D0012100E009
:101F600000217B684140002B01D010469847761C29
:101F7000F6B228788642D8D3F8BD00005800002079
:101F800010B50E4900234A788C78A24212D0521C18
:101F9000D2B24A70022A00D14B704A78074B9200A5
:101FA00018339A580260086910180002000A086184
:101FB000012010BD0360002010BD000020000020A3
:101FC000826883881A4003689A5C0A708168491C99
:101FD00081607047C26883881A4003689954C16859
:101FE000491CC160704710B50446C0B2FFF794FCAD
:101FF000204610BDF8B50746104E0125BD4030689B
:10200000FFF710FC00280DD10D4C2069284207D1A4
:10201000384600F0CDFA0028E06804D0284303E0F9
:10202000A8432061F8BDA843E0602069002228434E
:102030002061A1683068FFF7B7FBF8BDF82E0000FB
:10204000580000201048018CC9B2012917D1818C99
:10205000090714D1018D09060A0F03D1828D1206DA
:10206000120F0ED0090F012903D1828D1206120F13
:1020700007D0032903D1808D0006000F01D0002076
:102080007047012070470000C00F00F002680A602E
:10209000002A01607047000010B50448017AC907A2
:1020A00002D00078FFF79EFD10BD00004000002028
:1020B000F8B52C49C8680A690C780F798968864692
:1020C000944600913EE00099E20055182A7836E0E7
:1020D000182353436968521CC918AB78D2B2934293
:1020E00000D100220B78022B02D0032B27D123E052
:1020F0004E680346014603E0B14204D00B46C9696D
:1021000000291CD0F8E7002919D08B4208D1C069FA
:10211000002805D1144F0126BE600026B4460127D1
:102120000E68C969D961002909D00B689B190B6039
:1021300005E00174C06900E000210028F9D1697848
:102140009142C5D12146641EE4B20029BBD10549A4
:1021500062460A61C8600F71704501D00120F8BD68
:102160000020F8BD2000002000100140F8B5044612
:1021700031480026C168009107784EE02E48F900EA
:1021800080680D1843E0002C02D02046E4691FE06F
:102190002878182141436A68401CC0B25118287041
:1021A000AA78904200D12E700A784868012A30D16E
:1021B000027C002A2DD18A684260CA6882600A695E
:1021C000C260496981611C490979002900D04660D3
:1021D000194943680A699C46991A0902174B090A6A
:1021E000994202D28268891807E06146511A0902B1
:1021F0008268090A8A4202D9511A016000E0066029
:102200004660012186600174C66100F075FC002CF7
:10221000B9D1287869788842BAD138467F1EFFB292
:102220000028ABD10448C1680098814201D0012048
:10223000F8BD0020F8BD000020000020FFFF7F0057
:102240000020334F334E88B00125315C2A468A4046
:10225000BA60401C0428F8DB0024305D00F04AFB23
:10226000641C042CF9DB022000F044FB0420F8601D
:102270002A4929484860274804AB001D07C807C3FE
:102280002748009027480290FF20013003900195D5
:102290000323254A694604A8FFF7EEFA002801D077
:1022A000FFF7ECF921A0FEF7E9FC0023224A052103
:1022B0001846FFF731FA002801D0FFF7DFF900F0E8
:1022C00057F8002801D0FFF7D9F9002000F06EF888
:1022D000FFF7A8FB194A1A490320FFF733FC00282F
:1022E00001D0FFF7CBF90D2201210020FFF706FCFA
:1022F00001210E220846FFF701FC0F2201210220D6
:10230000FFF7FCFB102201210320FFF7F7FBFEE79C
:10231000000500506C2E00000A040000007500400B
:102320000000002070000020052C00000D0A205342
:1023300074617274210D0A00700100202D1A0000D2
:10234000660600000121890740180068002800D0B7
:102350000120704731B5054C04E0401E0090204636
:10236000FDF7B8FE00980028F7D138BDE70300005C
:1023700070B50C4C207A002801D0852070BD002556
:102380006560256025610849FF20E5600861064811
:102390000126403886610321284600F037F826726E
:1023A000284670BDBC0300204005004070B50446BF
:1023B0000020FFF7CDFA124DA87A002805D0002C96
:1023C00016D061680120884712E0002C04D00C4828
:1023D00021461030FFF75AFEE868002808D1094965
:1023E000086009490220486006490120FC3908605C
:1023F000E868401CE8600020FFF7AEFA70BD0000FE
:10240000BC03002004010040000300408207D30EFB
:10241000FF229A408907090E10B5994000280BDA6F
:1024200003071B0F083B9C080C4BA400E318DC6956
:1024300094430C43DC6107E08408094BA400E418D2
:10244000236893430B432360C106C90E01208840D3
:10245000044908600449086010BD000000ED00E078
:1024600000E400E080E200E000E100E0F3B581B0CC
:102470000F46019800F084FA012400281E4E0198AE
:1024800017D0FFF7E3FC80192030007F8009032874
:1024900002D0012806D007E01848006901998C4055
:1024A000204201D1022100E00321019800F034FA1A
:1024B000FEBD00F071FA0028FAD00198FFF7C6FCC3
:1024C00005468100C81D0E4AF93089180A6980B294
:1024D00022430A610B49401800210160002FE7D018
:1024E0000198FFF7B3FC800030580028E0D0064880
:1024F000AC404460FEBD00007403002000050050A5
:10250000006500400060004000630040FEB50446E6
:1025100023480E460019202141560027C8171346AC
:10252000401C01D0082738E0F27819462046FFF712
:1025300069FC0546401C2FD0B078002807D0194808
:10254000A1000918086802229043086007E00021F2
:102550007378204600910A46019100F0AFF9F078B7
:10256000002810D01048AA001018317802690F4BCB
:102570001A400261E206D20C8907890B0A430169FD
:102580000A43026109E00648327840192030017F91
:1025900092011143017700E004273846FEBD000098
:1025A000740300200007005000650040FFE0FCFFBE
:1025B00003490969C140C807C00F00D00120704716
:1025C0000005005070B5124D2879002801D0082070
:1025D00070BD0F4900204039421E0B182033401CAB
:1025E000C0B21A702028F8D300242046FFF7FCFB65
:1025F000641CE4B2082CF8D303210620FFF706FF81
:1026000001200449C007486001202871002070BDE6
:10261000B40300200063004002480079002800D085
:1026200001207047B4030020F3B52A4C0746E07E32
:1026300081B0002801D00820FEBD002F00D1264F18
:10264000012638783146814024488160386800F09E
:1026500059F90021786800F043F9214DB8696862A2
:10266000787D397D0843E86603CFE8606961387B8F
:10267000083F01280FD10021B86800F031F9387BFC
:102680003146814015488160F86800F03BF9F968EF
:10269000B868A960286102986060396921600028E3
:1026A0000ED0FF230F481D33397F0022C250FF2375
:1026B0004533C2500D4A0C4850600220FFF7A6FE79
:1026C000042028600020E0752076A075E676A076CC
:1026D000FEBD0000580300209C2E000000050050A5
:1026E0000025004000200040800002000023004040
:1026F000F8B5104B81245E680022A4000E4D002E18
:1027000000D0AC60DF7D002F0BD01A7E002A04D0F1
:10271000002E00D06C601120F8BD186101221976DE
:1027200004E0D9750024D8605C761C7600F012F8BD
:10273000F8BD0000580300200023004010B5044CF1
:10274000A07E002803D100F07FF90120A07610BD03
:1027500058030020F8B5234DA87E104301D100F0A6
:1027600073F96868204C002805D081201F4980003B
:1027700048600020F8BDFF20453000212150FF2196
:102780002531204600F0EEF80546FF2109312046AC
:1027900000F0E8F80746FF214531204600F0E2F856
:1027A0000646394631432943E9D02846304306D10D
:1027B00000F020F90B48C17D407E8142DFD8002126
:1027C0000848002DC17501D00320F8BD002E01D0AE
:1027D0000F20F8BD817E0120002901D02060C8E7CC
:1027E0006060C6E75803002000200040002300403E
:1027F00010B5034600F048F8002801D0112010BDA4
:10280000034A002091759360908200F003F810BD98
:1028100058030020F8B50026194FFF251D357E51BD
:102820000120B86000F0C8F9164C6168002910D08A
:1028300022E0FF2701372946114800F093F80028CD
:1028400002D1A08AB842F6D1A08AB84201D000F0E5
:10285000B3F9A08AA17D8842EBD3A18AC81FF938B9
:102860000CD0074F2946384600F07CF80028F9D0F4
:102870000120F8600020A0753046F8BD0F26F9E76A
:1028800000200040580300200248807D002800D02E
:10289000012070475803002030B552000A439900C8
:1028A000039C0A432102049D0A4329040A43024966
:1028B00080004018026030BD0007005030B5520063
:1028C0000A439900039C0A432102049D0A432904F8
:1028D0000A43024980004018026030BD00070050E2
:1028E0001CB500220B46009211460192FFF7D4FF5F
:1028F0001CBD0000024A032180008018016070475F
:10290000000700501CB5002100910B4601220191E7
:102910001146FFF7C1FF1CBD82000648101802686F
:1029200003231B049A430260026809040A430260FD
:1029300070470000000700500121044A81405068A0
:102940000B46834393600840D060704700050050F9
:10295000034940180068012800D00020704700009B
:10296000006000404058002800D00120704703223A
:10297000120280184068084000D001207047000013
:102980000449081820214156042901DB0120704721
:102990000020704774030020044908182021415684
:1029A000042901D2012070470020704774030020E1
:1029B00070B501240B49600408600B494010886021
:1029C000094940398860094D6C602F20FDF792FB62
:1029D000AC60074D00242F202C61FDF78BFBEC70C1
:1029E00070BD000080E100E0401301400010014094
:1029F0002000002030B50A48FF21C57D0022094C87
:102A00000931094B002D625007D09969437EC26895
:102A1000D154417E491C417630BD986930BD0000DB
:102A20005803002000200040002500401FB501236E
:102A30006A46137010720348019106C868469047B1
:102A40001FBD000058030020FF2205482532002149
:102A50008150FF220932815001210160704700003E
:102A600000200040FEB51F4C00252769E068029059
:102A70006846FFF785FA0190FFF71AFB06460198B2
:102A8000002822D000230098E16817E00E680A466B
:102A9000864202D9301A086012E0801BF318002623
:102AA0001660D668D169B446002E07D0FE183602EB
:102AB000360A566066469660D56115460029E5D10E
:102AC0002846E160FFF752FB06E02846FFF74EFB81
:102AD000002801D1002E02D00298FFF7CDF9002086
:102AE0002071FEBD20000020012002490005086081
:102AF0007047000000E200E010B50E4BD9680029D5
:102B000006D002680C68A24204D8A21A0A60C16109
:102B1000D86010BD0B4604E00B46C969121B0029A2
:102B200004D00C689442F7D3A41A0C600260C1610F
:102B3000D86110BD20000020F8B51D4DEC68002CB8
:102B400034D01C48002740682969401A0602360A1A
:102B50002068B04218D8361AC7192246107CE4699A
:102B600000280FD0002010746B69002B07D09169EA
:102B700050699847002805D0FEF780FD02E05169B2
:102B800090698847002CE3D16978A878814206D102
:102B9000401CC0B2A870022801D10020A8700449CE
:102BA0000006800D18310F50FFF79EFFF8BD0000A2
:102BB0002000002000150140FF2107481D310022A0
:102BC00042500648828A8168895C828A521C8282CD
:102BD0000348C161704700000020004058030020F6
:102BE000002500401FB500216A461170107204488C
:102BF00082680192817506C8684690471FBD000033
:102C00005803002010B50178022901D0012902D112
:102C10004068FEF733FD10BD7CB50178284D0129D1
:102C20000AD002292FD000292CD129462548FEF7A9
:102C300031FD002833D036E0406801782148103853
:102C4000FEF745FD1F4C103C002805D001216A46C7
:102C500011700190684608E0A068E168081A012830
:102C600005D1002069460870684669688847A068F1
:102C7000E168081AA188884204D811480121401C43
:102C8000FFF736FD7CBD02216A461170C0680190D5
:102C90000B480121401CFFF72BFD68460CE0012189
:102CA0000748FFF7A5FD07488168C0688842E9D159
:102CB0000320694608706846696888477CBD000043
:102CC0001000002048030020F0B5454D012185B0DB
:102CD00049022846FFF74BFE01270026414C0028F9
:102CE00024D0FF2125312846FFF73CFE00281DD0C7
:102CF000FF2025302E5081203B4980008860A07E37
:102D0000002800D16F6002216846017037490868C9
:102D100008600390E17D68460172E0680190E67505
:102D2000267606CC6846083C90472BE004212846CE
:102D3000FFF71DFE002825D0FF2109312846FFF7A7
:102D400011FE00281ED0FFF755FEE07D617E88420F
:102D500018D1207E002808D0627EE168E0752069E5
:102D6000E0602676667610460AE0A07E002800D154
:102D70006F6081201C4980008860E675607EE16894
:102D8000FFF754FEFF211D312846FFF7EBFD002819
:102D90000DD0A18AA07D814202D2FFF70DFF06E08F
:102DA000FF211D316E50002801D0FFF71BFFFF21CE
:102DB00045312846FFF7D6FD00280ED0FF204530CC
:102DC0002E50A07E002800D02F60E07D002804D087
:102DD000E675607EE168FFF729FE05B0F0BD0000F2
:102DE00000200040580300200023004080240040C1
:102DF000EFF30580C005C00D1AD0103840B200288E
:102E000008DA0107090F083989080C4A890089186E
:102E1000C96904E081080A4A89008918096880079D
:102E2000C00EC1400806800F012803D0032803D03C
:102E300002207047002070470120704700ED00E03D
:102E400000E400E042788378521CD2B2934200D171
:102E500000220378934201D1002070470A70416834
:102E600040781822504308187047000015161718AC
:102E70000B09080A0100000000E0D701090000006A
:102E80000B0000000A000000080000000000000025
:102E90000000000000E0D70103000000090000006E
:102EA0000B0000000A000000080000000000000005
:102EB0000000000000E0D70103000000D003002064
:102EC000F00300201C04002011000000120000008C
:102ED0001300000014000000110003008519000019
:102EE000120003008519000013000300851900007B
:102EF00014000300851900003C04002003000000BA
:102F0000202F00000000002070000000E40C0000F2
:102F1000902F000070000020F00B0000F40C000067
:102F200000000000A0860100A0BB0D0040420F0081
:102F30000000000000000000000000000000000091
:102F40000000000000000000000000000000000081
:102F50000000000000000000000000000000000071
:102F60000000000000000000000000000000000061
:102F70000000000000000000000000000000000051
:102F80000000000000000000000000000024F40029
:04000005000000C136
:00000001FF
