:020000040000FA
:1000000050090020F50000000F0100001101000060
:1000100000000000000000000000000000000000E0
:1000200000000000000000000000000013010000BC
:100030000000000000000000150100001701000092
:10004000190100001901000041020000190100001F
:100050001901000000000000190100001901000052
:100060001901000019010000190100001901000028
:100070001901000019010000190100001901000018
:100080001901000019010000190100001901000008
:1000900019010000190100001901000019010000F8
:1000A000190100001901000000000000000000001C
:1000B0000000000000000000000000000000000040
:1000C0000348854600F05AF800480047B50500008F
:1000D00050090020401E00BF00BF00BF00BF00BF8E
:1000E00000BF00BF00BF00BF00BF00BF00BFF1D115
:1000F000704700000321094802680A43026008486B
:1001000002680A4302600748804707480047FEE745
:10011000FEE7FEE7FEE7FEE7FEE7000024050040FD
:1001200054050040A1010000C100000003460B433C
:100130009B0703D009E008C9121F08C0042AFAD29D
:1001400003E00B780370401C491C521EF9D2704723
:1001500030B50B46014600202022012409E00D465F
:10016000D5409D4205D31D469540491B25469540E7
:1001700040191546521E002DF1DC30BD064C0125FC
:10018000064E05E0E36807CC2B430C3C984710343F
:10019000B442F7D3FFF798FFD40C0000F40C000032
:1001A00010B500F0E3F9002805D01F491D4848604C
:1001B000C8131E4988611E48018CC9B201290BD1A0
:1001C000828C120708D1028D1206120F042A03D165
:1001D000828D1206120F0AD0012921D1818C0907C4
:1001E0001ED1018D0906090F0A2904D007E0114A22
:1001F00001219160F5E7828D1206120F05D00D29BD
:100200000ED1808D0006000F0AD10B48016801292C
:1002100004D00A49016001680129FCD1C021416173
:1002200010BD0000DFFF07C000050040006C00406B
:10023000C00F00F00006004000EC0640759300007F
:1002400010B500F08DFC10BD0FB410B503A9044B20
:10025000044A029800F018F810BC08BC04B0184713
:100260005F0500000C00002002E008C8121F08C152
:10027000002AFAD170477047002001E001C1121F27
:10028000002AFBD170470000FFB58DB00446002561
:1002900006E025280AD0109A0F999047641C6D1C1F
:1002A00020780028F5D1284611B0F0BD00270121A3
:1002B000484A009700E00743641C23780846203B27
:1002C00098401042F7D120782E2817D104200743F8
:1002D0006078641C2A280CD10E98641C02C8009116
:1002E0000E900BE000990A22514330394018641CEB
:1002F00000902078014630390929F3D92078002868
:10030000D1D0642808D0692806D075281ED0109A4C
:100310000F9990476D1C5BE00A200E99019001C96E
:100320000E91002802DA40422D2102E0390504D561
:100330002B216A461172012103E0F90704D0202124
:10034000F7E70BAE0B910DE00021FAE70A200E99BA
:10035000019001C90E91F7E70199FFF7F9FE3031DD
:10036000761E31700028F7D103A8801B2030019041
:10037000780701D5009801E001200090019988429A
:1003800001DD401A00E000200027009006E002A8EE
:10039000109AC05D0F9990476D1C7F1C0B98874287
:1003A000F5DB04E0109A30200F9990476D1C0099FE
:1003B000481E00900029F5DC05E03078109A761C84
:1003C0000F9990476D1C0199481E01900029F4DC9B
:1003D000641C65E709280100BFF34F8F04490348F7
:1003E000C860BFF34F8F00BFFDE700000400FA05AF
:1003F00000ED00E00EB50021029000916A460191E7
:100400000148FFF7E9FF0EBD0140000010B582680A
:10041000C368934203D000F08FF8002010BD052080
:1004200010BD002906D0002A02D0531E134203D06B
:10043000092070470E207047016083800021816091
:10044000C1600846704710B58268C3689A1A8388ED
:100450009A4203D800F07AF8002010BD042010BDA5
:1004600070B50446224888B01E460D0042601CD07C
:10047000A888296882B21F48FFF7D3FF002815D14A
:10048000A889A96882B21B481030FFF7CAFF00286C
:100490000CD1202218496846FFF748FEA068069054
:1004A0002079002804D0012103E0072008B070BDA6
:1004B00000216846017506776079002800D00E207B
:1004C00069464875E0780290A07803902078019002
:1004D000607800900949684600F00EF90028E5D1DF
:1004E00000F094F902480121401C00F069F9DDE7B1
:1004F0000400002014010020940C0000B10A000048
:1005000010B501460A48FFF79EFF04000ED100F027
:1005100023FA00280AD107490548FFF777FF00288A
:1005200004D10121034800F0CBF90446204610BD58
:100530002401002004000020826883881A40036898
:100540009A5C0A708168491C81607047C268838820
:100550001A4003689954C168491CC160704710B5BE
:100560000446C0B2FFF7CCFF204610BD1048018CF6
:10057000C9B2012917D1818C090714D1018D09064F
:100580000A0F03D1828D1206120F0ED0090F012916
:1005900003D1828D1206120F07D0032903D1808D5B
:1005A0000006000F01D000207047012070470000B6
:1005B000C00F00F0F0B589B0162000F0F1F9012667
:1005C000244DB005E860022000F0EAF90420E8605C
:1005D00022492148486000243046A040C001000F55
:1005E00002D0204600F0DCF9641C202CF4D30F204C
:1005F0004005A8600020E860194A02AB07CA07C39B
:1006000018481A4A41C318480790FF200130089043
:10061000032305A902A8FFF723FF002801D0FFF755
:10062000E9FE0124FF27124EF537214611A0FFF7FE
:100630000BFE6A68042108469043A8600A40EA60FD
:10064000384600F01BF8641CB442EEDD002009B00F
:10065000F0BD0000000500500A04000000750040D5
:10066000880C000000000020140000209D0A0000FB
:10067000A086010025640D0D0000000031B5054C79
:1006800004E0401E00902046FFF724FD009800285B
:10069000F7D138BDE70300008207D30EFF229A404E
:1006A0008907090E10B5994000280BDA03071B0FC4
:1006B000083B9C080C4BA400E318DC6994430C43F2
:1006C000DC6107E08408094BA400E4182368934325
:1006D0000B432360C106C90E01208840044908600D
:1006E0000449086010BD000000ED00E000E400E0F7
:1006F00080E200E000E100E0F3B52A4C0746E07E2E
:1007000081B0002801D00820FEBD002F00D1264F67
:10071000012638783146814024488160386800F0ED
:1007200047F90021786800F031F9214DB869686215
:10073000787D397D0843E86603CFE8606961387BDE
:10074000083F01280FD10021B86800F01FF9387B5D
:100750003146814015488160F86800F029F9F96850
:10076000B868A96028610298606039692160002832
:100770000ED0FF230F481D33397F0022C250FF23C4
:100780004533C2500D4A0C4850600220FFF784FFE9
:10079000042028600020E0752076A075E676A0761B
:1007A000FEBD000034010020B40C00000005005024
:1007B000002500400020004080000200002300408F
:1007C000F8B5104B81245E680022A4000E4D002E67
:1007D00000D0AC60DF7D002F0BD01A7E002A04D041
:1007E000002E00D06C601120F8BD1861012219762E
:1007F00004E0D9750024D8605C761C7600F012F80D
:10080000F8BD0000340100200023004010B5044C66
:10081000A07E002803D100F00DF90120A07610BDC4
:1008200034010020F8B5234DA87E104301D100F01B
:1008300001F96868204C002805D081201F498000FC
:1008400048600020F8BDFF20453000212150FF21E5
:100850002531204600F0B6F80546FF210931204633
:1008600000F0B0F80746FF214531204600F0AAF815
:100870000646394631432943E9D02846304306D15C
:1008800000F0AEF80B48C17D407E8142DFD80021E8
:100890000848002DC17501D00320F8BD002E01D0FD
:1008A0000F20F8BD817E0120002901D02060C8E71B
:1008B0006060C6E7340100200020004000230040B3
:1008C00010B5034600F048F8002801D0112010BDF3
:1008D000034A002091759360908200F003F810BDE8
:1008E00034010020F8B50026194FFF251D357E5133
:1008F0000120B86000F0ACF8164C6168002910D0F7
:1009000022E0FF2701372946114800F05BF8002854
:1009100002D1A08AB842F6D1A08AB84201D000F034
:1009200097F8A08AA17D8842EBD3A18AC81FF93825
:100930000CD0074F2946384600F044F80028F9D07B
:100940000120F8600020A0753046F8BD0F26F9E7B9
:1009500000200040340100200248807D002800D0A3
:10096000012070473401002030B552000A4399003D
:10097000039C0A432102049D0A4329040A430249B5
:1009800080004018026030BD000700501CB50022F6
:100990000B46009211460192FFF7E6FF1CBD0000D6
:1009A000024A032180008018016070470007005050
:1009B0001CB5002100910B46012201911146FFF761
:1009C000D3FF1CBD4058002800D0012070470322EF
:1009D000120280184068084000D0012070470000D3
:1009E00030B50A48FF21C57D0022094C0931094B69
:1009F000002D625007D09969437EC268D154417E70
:100A0000491C417630BD986930BD0000340100209A
:100A100000200040002500401FB501236A461370E6
:100A200010720348019106C8684690471FBD000038
:100A300034010020FF220548253200218150FF2289
:100A40000932815001210160704700000020004000
:100A5000FF2107481D31002242500648828A8168E2
:100A6000895C828A521C82820348C16170470000FF
:100A70000020004034010020002500401FB5002167
:100A80006A4611701072044882680192817506C826
:100A9000684690471FBD00003401002010B5017862
:100AA000022901D0012902D14068FFF7A3FC10BD43
:100AB0007CB50178284D01290AD002292FD00029C0
:100AC0002CD129462548FFF7A1FC002833D036E079
:100AD0004068017821481038FFF7B5FC1F4C103CE6
:100AE000002805D001216A4611700190684608E08F
:100AF000A068E168081A012805D10020694608703D
:100B0000684669688847A068E168081AA188884231
:100B100004D811480121401CFFF752FE7CBD022180
:100B20006A461170C06801900B480121401CFFF714
:100B300047FE68460CE001210748FFF7C1FE074861
:100B40008168C0688842E9D1032069460870684618
:100B5000696888477CBD0000040000202401002053
:100B6000F0B5454D012185B049022846FFF72FFF1A
:100B700001270026414C002824D0FF21253128469A
:100B8000FFF720FF00281DD0FF2025302E508120A8
:100B90003B4980008860A07E002800D16F60022160
:100BA000684601703749086808600390E17D68462F
:100BB0000172E0680190E675267606CC6846083C2E
:100BC00090472BE004212846FFF701FF002825D09D
:100BD000FF2109312846FFF7F5FE00281ED0FFF758
:100BE000FFFEE07D617E884218D1207E002808D07B
:100BF000627EE168E0752069E060267666761046E0
:100C00000AE0A07E002800D16F6081201C4980008E
:100C10008860E675607EE168FFF7FEFEFF211D310A
:100C20002846FFF7CFFE00280DD0A18AA07D814283
:100C300002D2FFF70DFF06E0FF211D316E500028A4
:100C400001D0FFF71BFFFF2145312846FFF7BAFE11
:100C500000280ED0FF2045302E50A07E002800D066
:100C60002F60E07D002804D0E675607EE168FFF724
:100C7000D3FE05B0F0BD000000200040340100208C
:100C800000230040802400400B09080A01000000F6
:100C900000E0D701090000000B0000000A0000007E
:100CA00008000000000000000000000000E0D70184
:100CB00003000000090000000B0000000A00000013
:100CC00008000000000000000000000000E0D70164
:100CD00003000000F40C00000000002014000000DD
:100CE00068020000080D0000140000203C0900000C
:100CF000780200000000000000000000000000007A
:080D0000000000000024F400D3
:04000005000000C136
:00000001FF
